:10000000E3C00000B8C20000E3C200000EC300005D
:1000100039C30000F4C00000F2C00000F0C00000CE
:10002000EEC00000ECC00000BEC5000035C60000F8
:10003000E6C00000E4C00000E2C00000E0C0000034
:10004000DEC00000DCC00000DAC00000D8C0000044
:10005000D6C00000D4C00000D2C0000003C500001C
:10006000CEC00000CCC00000CAC00000C8C0000064
:10007000C6C00000C4C00000C2C00000C0C0000074
:10008000BEC00000BCC00000BAC00000B8C0000084
:10009000B6C00000B4C00000B2C00000B0C0000094
:1000A000AEC00000ACC00000AAC00000FCF3CF3F0F
:1000B0000123022304230823802301290229042980
:1000C0000829402680264029802910232023402308
:1000D000802F402F202F102F022F012F1029202991
:1000E000402C7DFD7DFB7DF77DEF7DDF7E7F7EBF3C
:1000F0007EDF7EEF7EFD7EFE7DFE00010000AB0117
:1001000012000200006801430003000064010401C2
:100110000309044A01180203090432011603030902
:100120000424010C0C03310032003300340035008C
:1001300000001603550053004200200053006500E4
:100140007200690061006C00000018035400650033
:1001500065006E00730079006400750069006E0030
:100160006F0000000403090409024300020100C0FB
:1001700032090400000102020100052400100105FB
:10018000240100010424020605240600010705825B
:100190000308004009040100020A000000070503EB
:1001A0000240000007058402400000120100020224
:1001B000000020C01683047102010203010001C186
:1001C000020180360181360011241FBECFEFDAE034
:1001D000DEBFCDBF11E0A0E0B1E0E8E6FFE002C085
:1001E00005900D92AC30B107D9F721E0ACE0B1E059
:1001F00001C01D92AA32B207E1F771D2B3C600CF97
:1002000064EC79E080E090E06DD43F9A4798E0ECB0
:10021000F0E080818F77808365E086E0C9D01BC1E4
:1002200048D164E670E080E090E05CD43BD164E6C5
:1002300070E080E090E056D443D164E670E080E066
:1002400090E050C480910E01882381F080910F01CD
:100250008A3028F48330C0F4823049F15CC08A309F
:1002600009F43EC08B3009F442C055C080910F01A3
:10027000893028F4823040F48130C9F04CC0893094
:1002800079F18A30A1F147C0479A8091C0008F77F9
:100290008093C0008091130190E09595879580939D
:1002A000130147988091C0008F778093C000479AD0
:1002B0008091C0008F778093C000E0911101F0E041
:1002C00039D380911301E795EE27E795E82BE0936A
:1002D000130147988091C0008F778093C0001BC0A6
:1002E000E0911101F0E026D3E093120114C0479A87
:1002F0008091C0008F778093C00010920F0181E041
:1003000080930D0110920E0147988091C0008F7765
:100310008093C000089580910F018F5F80930F013B
:10032000089580910F01893038F4E09111018130F6
:1003300040F4F0E06CD236C0893089F08A30B9F0F0
:1003400031C080911501F0E08170082E57D2809164
:10035000150190E0959587958093150123C08091B4
:100360001401E0911101F0E0082E48D21BC0E09189
:100370001101F0E046D281E080930C0180930E01E0
:1003800010920F01809110010FD2809111010CD2B7
:10039000809110018550843008F08FEF42E062E2D6
:1003A00071E095C080910F018F5F80930F010895D8
:1003B0008093100160931101F7D180911101F4D164
:1003C000809110018550843008F08FEF42E062E2A6
:1003D00071E07DC028E091E080FD9F5F869521500F
:1003E000D9F7892F81700895CF93DF9380931501FA
:1003F000F1DF80931401809110018550843008F062
:100400008FEF97D010920D0110920C018091100186
:10041000BAD1E0911001F0E0FAD1C8EBD1E0CE0101
:100420000197F1F710920F0180911101ACD18091E9
:100430001001E82FF0E0E5D12197F1F7B5D18091D7
:1004400010018550843008F08FEF42E061E971E0DF
:10045000DF91CF913CC0CF93DF93C8EBD1E08DEE1D
:10046000C3DF80910D018823E1F3809113018A3F5E
:1004700041F488EB91E00197F1F780E0DF91CF91B3
:10048000B3CF809113018E3F21F4CE010197F1F794
:10049000E6CF479A8091C0008F778093C000DF91AC
:1004A000CF9108959091160184E0892780931601D9
:1004B000D2CF9091160182E0892780931601CBCF8D
:1004C0009091160181E0892780931601C4CF843072
:1004D00050F08550843060F5E82FF0E0E95FFE4F82
:1004E0008081843028F5E82FF0E09F01220F331F30
:1004F000D901A95EBE4F11967C936E93E455FF4FD0
:10050000E49190916900437001C0440F2A95EAF785
:10051000E9234E2B409369004DB321E030E0B9014F
:1005200002C0660F771F8A95E2F7CB01842B8DBB43
:100530000895843050F085508430E0F4E82FF0E0E6
:10054000E95FFE4F80818430A8F44DB3E82FF0E0DE
:1005500021E030E0B90102C0660F771F8A95E2F70B
:10056000CB01809584238DBBEE0FFF1FE95EFE4F0C
:100570001182108208951F920F920FB60F921124CC
:100580002F933F934F935F936F937F938F939F939B
:10059000AF93BF93EF93FF93809117019091180150
:1005A000892B29F0E0911701F09118010995FF912D
:1005B000EF91BF91AF919F918F917F916F915F91DB
:1005C0004F913F912F910F900FBE0F901F90189554
:1005D0001F920F920FB60F9211242F933F934F93B8
:1005E0005F936F937F938F939F93AF93BF93EF939B
:1005F000FF938091190190911A01892B29F0E091C4
:100600001901F0911A010995FF91EF91BF91AF91F6
:100610009F918F917F916F915F914F913F912F911A
:100620000F900FBE0F901F9018951F920F920FB64C
:100630000F9211242F933F934F935F936F937F9368
:100640008F939F93AF93BF93EF93FF9380911B0181
:1006500090911C01892B29F0E0911B01F0911C0164
:100660000995FF91EF91BF91AF919F918F917F91EC
:100670006F915F914F913F912F910F900FBE0F900F
:100680001F9018951F920F920FB60F9211242F935F
:100690003F934F935F936F937F938F939F93AF930A
:1006A000BF93EF93FF9380911D0190911E01892BC1
:1006B00029F0E0911D01F0911E010995FF91EF9144
:1006C000BF91AF919F918F917F916F915F914F916A
:1006D0003F912F910F900FBE0F901F90189524D02F
:1006E0008FDD9EDDFECF1DBA109268001CBC10BECF
:1006F0001FBA10927A0010926E0010926F00109242
:100700007100109272001092C900ECEBF0E01082C0
:1007100014B817B81AB81DB810BA108215B818B89E
:100720001BB81EB811BA0895F894E1E6F0E020E88D
:100730002083108283E084BD85BDEEE6F0E08081F9
:100740008160808381E08093800092E090938100BB
:1007500080939000909391009093C00094E09093C8
:10076000C1008093C2008093C3001092C40086E849
:1007700080937A0020937B0010927E0010927D007F
:10078000F0D178940895893170F4E0EBF0E0880FAF
:10079000E80FF11D2591E491F0E09FB7F894818175
:1007A000822B81839FBF0895893138F595EF980F8B
:1007B0009C3048F4E2EEF0E0990FE90FF11DA591AD
:1007C000B0E0959103C09FEFA0E0B0E0E0EBF0E077
:1007D000880FE80FF11D2591E491F0E04FB7F894F0
:1007E0003181822F8095232F282321832281822308
:1007F0008283EC919E239C934FBF0895002039F093
:1008000000C0E93150F4EE0FE25FFB4F0994E9318B
:1008100020F4EE0FE05CFB4F09940895289A0895A8
:10082000299A08952A9A08952B9A08952F9A6AC0B2
:10083000589A58C0599A08955A9A08955B9A0895FB
:10084000469A66C0479A6AC05E9A08955F9A6CC0DD
:100850002C9A08952D9A4AC02E9A4EC08F9A0895C8
:100860008E9A08958D9A08958C9A0895899A08957C
:10087000889A08955C9A08955D9A0895769A0895E5
:1008800028980895299808952A9808952B980895EE
:100890002F9838C0589826C0599808955A980895A6
:1008A0005B980895469834C0479838C05E9808957C
:1008B0005F983AC02C9808952D9818C02E981CC0A7
:1008C0008F9808958E9808958D9808958C9808951E
:1008D00089980895889808955C9808955D9808957A
:1008E00076980895E4B5EF7DE4BD0895E091800029
:1008F000EF77E09380000895E0918000EF7DE09332
:1009000080000895E0918000E77FE09380000895E3
:10091000E0919000EF77E09390000895E091C0009F
:10092000EF77E093C0000895E091C200E77FE09385
:10093000C2000895E93130F4EE0FEE0FFF27EA55BB
:10094000FB4F0994EE270895E1E00895E3B1E170CB
:10095000D9F70895E3B1E270B9F70895E3B1E4700F
:1009600099F70895E3B1E87079F70895E3B1E07875
:1009700059F70895E9B1E17039F70895E9B1E270E6
:1009800019F70895E9B1E470F9F60895E9B1E8704E
:10099000D9F60895E6B1E074B9F60895E6B1E078C5
:1009A00099F60895E9B1E07479F60895E9B1E0782F
:1009B00059F60895E3B1E07139F60895E3B1E072B4
:1009C00019F60895E3B1E07429F50895EFB1E078E0
:1009D00009F50895EFB1E074E9F40895EFB1E0721C
:1009E000C9F40895EFB1E071A9F40895EFB1E27090
:1009F00089F40895EFB1E17069F40895E9B1E07107
:100A000049F40895E9B1E07229F40895ECB1E07475
:100A100009F40895E1E00895F89484B7877F84BFCE
:100A2000809160008061809360001092600080E29D
:100A30009EE40197F1F781E08093E00080E28093EB
:100A4000D80080E69AEE0197F1F74DDE0C94003F56
:100A5000FFCFF89448DE80E69AEE0197F1F70C9408
:100A60000000FFCF8F938FB78F9380911F018D5F11
:100A70008D37D0F480931F01809120018F5F809388
:100A80002001D8F0809121018F4F80932101A8F09F
:100A9000809122018F4F8093220178F08091230171
:100AA0008F4F8093230109C08D5780931F01809140
:100AB00020018E5F8093200128F7809124018C5FB4
:100AC0008093240158F0809125018F4F8093250158
:100AD00028F0809126018F4F809326018F918FBF40
:100AE0008F911895CF92DF92EF92FF926B017C016C
:100AF00019D09B01C114D104E104F10471F012D0AA
:100B0000621B730B683E7340A8F381E0C81AD108DA
:100B1000E108F10828513C4FEDCFFF90EF90DF90B6
:100B2000CF9008950FB6F89466B515B27091240170
:100B300080912501909126010FBE10FE05C06F3FE8
:100B400019F07C5F8F4F9F4F11240024660F001C0B
:100B5000660F001C702908958091E80080FFFCCF8B
:100B600008958091D80087FF02C085FF1BC081E0F7
:100B70008093D70080EA8093D80082E189BD09B4D0
:100B800000FEFDCF80E98093D8001092E000109223
:100B90002C0110922B0110922A011092E1008DE09D
:100BA0008093E20008951F920F920FB60F921124C6
:100BB0002F933F934F935F936F937F938F939F9365
:100BC000AF93BF93EF93FF939091E1001092E100F8
:100BD00093FF11C01092E90081E08093EB00109226
:100BE000EC0082E28093ED0088E08093F0001092A8
:100BF0002C0110922A0192FF1DC080912C018823A4
:100C0000C9F080912901882359F0815080932901EE
:100C1000811106C084E08093E9008AE38093E800B4
:100C200080912801882331F081508093280181111F
:100C300001C0F2DE90FF0CC080E18093E2001092D0
:100C40002C0181E080932B0180EA8093D80019BCAD
:100C500080912B01882379F094FF0DC082E189BD3A
:100C600009B400FEFDCF80E98093D8008DE0809329
:100C7000E20010922B01FF91EF91BF91AF919F91F4
:100C80008F917F916F915F914F913F912F910F9035
:100C90000FBE0F901F9018951F920F920FB60F92D4
:100CA0001124EF92FF920F931F932F933F934F9333
:100CB0005F936F937F938F939F93AF93BF93CF93E4
:100CC000EF93FF931092E9008091E80083FF31C118
:100CD000C091F1008091F1000091F1001091F100BC
:100CE000E090F100F090F1004091F1005091F1009E
:100CF00092EF9093E800863009F03FC086E0EAEF7B
:100D0000F0E0259135910217130711F0359615C0C3
:100D100025913591E216F30611F033960EC0259118
:100D2000359184914F3F510519F010F04FEF50E08D
:100D3000481708F4842F5EEF08C0815011F7F9C0FE
:100D4000891B5093E8008823A9F09091E800492F6F
:100D50004570D9F392FDF0C0982F813208F090E2EF
:100D6000492F442369F3F90125912093F1009F0154
:100D70004150F7CF903249F3DFC0853041F48EEF18
:100D80008093E800E9DE00680093E300D5C0893075
:100D900001F5C111CEC000932C0110922A011092CE
:100DA00029018EEF8093E80081E0EDEBF1E0809384
:100DB000E90095919093EB00992331F095919093F0
:100DC000EC0095919093ED008F5F853081F78EE177
:100DD000ABC0883049F4C03809F0ABC0BDDE8091AB
:100DE0002C018093F1007EC0813279F4C13A09F080
:100DF000A0C0B2DEE0E0F1E080818093F1003196A6
:100E000081E0E730F807C1F76DC0803209F047C0D4
:100E1000C13209F08EC08091E80082FFFCCFE0E093
:100E2000F1E08091F1008083319681E0E730F807AE
:100E3000C1F78BEF8093E8008EEF8093E80030914C
:100E4000000140910101809102012091030190E095
:100E5000A0E0B0E0DC0199278827942B832BB22BEC
:100E600086389105A105B10521F48FE08093280112
:100E700063C086399105A105B10509F05DC084E024
:100E80008093E9009FEF8091EE00837039F090939A
:100E9000E8008091E80082FDFCCFF5CFDADD8232F8
:100EA00031F4C13209F045C000932A0105C08332F4
:100EB00029F4C13209F03DC04FDE14C0811116C0C3
:100EC0004BDEC23851F4E092E9008091EB0085FBE3
:100ED000882780F91092E90001C080E08093F1003A
:100EE0001092F1008EEF8093E80026C0982F9D7F2E
:100EF0009130F9F4C230E9F4012BD9F4CE2DCF773B
:100F00009FEF9C0F9630A8F49EEF9093E800C0935B
:100F1000E900833071F089E18093EB0081E090E09B
:100F200001C0880FCA95EAF78093EA001092EA00A0
:100F300003C081E28093EB00FF91EF91CF91BF91CD
:100F4000AF919F918F917F916F915F914F913F9161
:100F50002F911F910F91FF90EF900F900FBE0F9068
:080F60001F901895F894FFCFD3
:0C0F680000E1000000000800010203008E
:00000001FF
